{
  "_format": "hh-sol-artifact-1",
  "contractName": "BetfinCollectible",
  "sourceName": "contracts/BetfinCollectible.sol",
  "abi": [
    {
      "inputs": [],
      "stateMutability": "nonpayable",
      "type": "constructor"
    },
    {
      "inputs": [],
      "name": "ERC721EnumerableForbiddenBatchMint",
      "type": "error"
    },
    {
      "inputs": [
        {
          "internalType": "address",
          "name": "sender",
          "type": "address"
        },
        {
          "internalType": "uint256",
          "name": "tokenId",
          "type": "uint256"
        },
        {
          "internalType": "address",
          "name": "owner",
          "type": "address"
        }
      ],
      "name": "ERC721IncorrectOwner",
      "type": "error"
    },
    {
      "inputs": [
        {
          "internalType": "address",
          "name": "operator",
          "type": "address"
        },
        {
          "internalType": "uint256",
          "name": "tokenId",
          "type": "uint256"
        }
      ],
      "name": "ERC721InsufficientApproval",
      "type": "error"
    },
    {
      "inputs": [
        {
          "internalType": "address",
          "name": "approver",
          "type": "address"
        }
      ],
      "name": "ERC721InvalidApprover",
      "type": "error"
    },
    {
      "inputs": [
        {
          "internalType": "address",
          "name": "operator",
          "type": "address"
        }
      ],
      "name": "ERC721InvalidOperator",
      "type": "error"
    },
    {
      "inputs": [
        {
          "internalType": "address",
          "name": "owner",
          "type": "address"
        }
      ],
      "name": "ERC721InvalidOwner",
      "type": "error"
    },
    {
      "inputs": [
        {
          "internalType": "address",
          "name": "receiver",
          "type": "address"
        }
      ],
      "name": "ERC721InvalidReceiver",
      "type": "error"
    },
    {
      "inputs": [
        {
          "internalType": "address",
          "name": "sender",
          "type": "address"
        }
      ],
      "name": "ERC721InvalidSender",
      "type": "error"
    },
    {
      "inputs": [
        {
          "internalType": "uint256",
          "name": "tokenId",
          "type": "uint256"
        }
      ],
      "name": "ERC721NonexistentToken",
      "type": "error"
    },
    {
      "inputs": [
        {
          "internalType": "address",
          "name": "owner",
          "type": "address"
        },
        {
          "internalType": "uint256",
          "name": "index",
          "type": "uint256"
        }
      ],
      "name": "ERC721OutOfBoundsIndex",
      "type": "error"
    },
    {
      "inputs": [
        {
          "internalType": "address",
          "name": "owner",
          "type": "address"
        }
      ],
      "name": "OwnableInvalidOwner",
      "type": "error"
    },
    {
      "inputs": [
        {
          "internalType": "address",
          "name": "account",
          "type": "address"
        }
      ],
      "name": "OwnableUnauthorizedAccount",
      "type": "error"
    },
    {
      "anonymous": false,
      "inputs": [
        {
          "indexed": true,
          "internalType": "address",
          "name": "owner",
          "type": "address"
        },
        {
          "indexed": true,
          "internalType": "address",
          "name": "approved",
          "type": "address"
        },
        {
          "indexed": true,
          "internalType": "uint256",
          "name": "tokenId",
          "type": "uint256"
        }
      ],
      "name": "Approval",
      "type": "event"
    },
    {
      "anonymous": false,
      "inputs": [
        {
          "indexed": true,
          "internalType": "address",
          "name": "owner",
          "type": "address"
        },
        {
          "indexed": true,
          "internalType": "address",
          "name": "operator",
          "type": "address"
        },
        {
          "indexed": false,
          "internalType": "bool",
          "name": "approved",
          "type": "bool"
        }
      ],
      "name": "ApprovalForAll",
      "type": "event"
    },
    {
      "anonymous": false,
      "inputs": [
        {
          "indexed": true,
          "internalType": "address",
          "name": "to",
          "type": "address"
        },
        {
          "indexed": true,
          "internalType": "uint256",
          "name": "tokenId",
          "type": "uint256"
        },
        {
          "indexed": false,
          "internalType": "string",
          "name": "name",
          "type": "string"
        },
        {
          "indexed": false,
          "internalType": "uint8",
          "name": "rarity",
          "type": "uint8"
        }
      ],
      "name": "Minted",
      "type": "event"
    },
    {
      "anonymous": false,
      "inputs": [
        {
          "indexed": true,
          "internalType": "address",
          "name": "previousOwner",
          "type": "address"
        },
        {
          "indexed": true,
          "internalType": "address",
          "name": "newOwner",
          "type": "address"
        }
      ],
      "name": "OwnershipTransferred",
      "type": "event"
    },
    {
      "anonymous": false,
      "inputs": [
        {
          "indexed": true,
          "internalType": "address",
          "name": "from",
          "type": "address"
        },
        {
          "indexed": true,
          "internalType": "address",
          "name": "to",
          "type": "address"
        },
        {
          "indexed": true,
          "internalType": "uint256",
          "name": "tokenId",
          "type": "uint256"
        }
      ],
      "name": "Transfer",
      "type": "event"
    },
    {
      "inputs": [
        {
          "internalType": "address",
          "name": "to",
          "type": "address"
        },
        {
          "internalType": "uint256",
          "name": "tokenId",
          "type": "uint256"
        }
      ],
      "name": "approve",
      "outputs": [],
      "stateMutability": "nonpayable",
      "type": "function"
    },
    {
      "inputs": [
        {
          "internalType": "address",
          "name": "owner",
          "type": "address"
        }
      ],
      "name": "balanceOf",
      "outputs": [
        {
          "internalType": "uint256",
          "name": "",
          "type": "uint256"
        }
      ],
      "stateMutability": "view",
      "type": "function"
    },
    {
      "inputs": [
        {
          "internalType": "uint256",
          "name": "tokenId",
          "type": "uint256"
        }
      ],
      "name": "getApproved",
      "outputs": [
        {
          "internalType": "address",
          "name": "",
          "type": "address"
        }
      ],
      "stateMutability": "view",
      "type": "function"
    },
    {
      "inputs": [
        {
          "internalType": "uint256",
          "name": "tokenId",
          "type": "uint256"
        }
      ],
      "name": "getMetadata",
      "outputs": [
        {
          "components": [
            {
              "internalType": "string",
              "name": "name",
              "type": "string"
            },
            {
              "internalType": "string",
              "name": "description",
              "type": "string"
            },
            {
              "internalType": "uint8",
              "name": "rarity",
              "type": "uint8"
            },
            {
              "internalType": "string",
              "name": "tokenURI",
              "type": "string"
            }
          ],
          "internalType": "struct BetfinCollectible.Meta",
          "name": "",
          "type": "tuple"
        }
      ],
      "stateMutability": "view",
      "type": "function"
    },
    {
      "inputs": [
        {
          "internalType": "address",
          "name": "owner",
          "type": "address"
        },
        {
          "internalType": "address",
          "name": "operator",
          "type": "address"
        }
      ],
      "name": "isApprovedForAll",
      "outputs": [
        {
          "internalType": "bool",
          "name": "",
          "type": "bool"
        }
      ],
      "stateMutability": "view",
      "type": "function"
    },
    {
      "inputs": [],
      "name": "name",
      "outputs": [
        {
          "internalType": "string",
          "name": "",
          "type": "string"
        }
      ],
      "stateMutability": "view",
      "type": "function"
    },
    {
      "inputs": [],
      "name": "nextTokenId",
      "outputs": [
        {
          "internalType": "uint256",
          "name": "",
          "type": "uint256"
        }
      ],
      "stateMutability": "view",
      "type": "function"
    },
    {
      "inputs": [],
      "name": "owner",
      "outputs": [
        {
          "internalType": "address",
          "name": "",
          "type": "address"
        }
      ],
      "stateMutability": "view",
      "type": "function"
    },
    {
      "inputs": [
        {
          "internalType": "uint256",
          "name": "tokenId",
          "type": "uint256"
        }
      ],
      "name": "ownerOf",
      "outputs": [
        {
          "internalType": "address",
          "name": "",
          "type": "address"
        }
      ],
      "stateMutability": "view",
      "type": "function"
    },
    {
      "inputs": [],
      "name": "renounceOwnership",
      "outputs": [],
      "stateMutability": "nonpayable",
      "type": "function"
    },
    {
      "inputs": [
        {
          "internalType": "string",
          "name": "_name",
          "type": "string"
        },
        {
          "internalType": "string",
          "name": "_description",
          "type": "string"
        },
        {
          "internalType": "uint8",
          "name": "_rarity",
          "type": "uint8"
        },
        {
          "internalType": "string",
          "name": "_tokenURI",
          "type": "string"
        }
      ],
      "name": "safeMint",
      "outputs": [],
      "stateMutability": "nonpayable",
      "type": "function"
    },
    {
      "inputs": [
        {
          "internalType": "address",
          "name": "from",
          "type": "address"
        },
        {
          "internalType": "address",
          "name": "to",
          "type": "address"
        },
        {
          "internalType": "uint256",
          "name": "tokenId",
          "type": "uint256"
        }
      ],
      "name": "safeTransferFrom",
      "outputs": [],
      "stateMutability": "nonpayable",
      "type": "function"
    },
    {
      "inputs": [
        {
          "internalType": "address",
          "name": "from",
          "type": "address"
        },
        {
          "internalType": "address",
          "name": "to",
          "type": "address"
        },
        {
          "internalType": "uint256",
          "name": "tokenId",
          "type": "uint256"
        },
        {
          "internalType": "bytes",
          "name": "data",
          "type": "bytes"
        }
      ],
      "name": "safeTransferFrom",
      "outputs": [],
      "stateMutability": "nonpayable",
      "type": "function"
    },
    {
      "inputs": [
        {
          "internalType": "address",
          "name": "operator",
          "type": "address"
        },
        {
          "internalType": "bool",
          "name": "approved",
          "type": "bool"
        }
      ],
      "name": "setApprovalForAll",
      "outputs": [],
      "stateMutability": "nonpayable",
      "type": "function"
    },
    {
      "inputs": [
        {
          "internalType": "bytes4",
          "name": "interfaceId",
          "type": "bytes4"
        }
      ],
      "name": "supportsInterface",
      "outputs": [
        {
          "internalType": "bool",
          "name": "",
          "type": "bool"
        }
      ],
      "stateMutability": "view",
      "type": "function"
    },
    {
      "inputs": [],
      "name": "symbol",
      "outputs": [
        {
          "internalType": "string",
          "name": "",
          "type": "string"
        }
      ],
      "stateMutability": "view",
      "type": "function"
    },
    {
      "inputs": [
        {
          "internalType": "uint256",
          "name": "index",
          "type": "uint256"
        }
      ],
      "name": "tokenByIndex",
      "outputs": [
        {
          "internalType": "uint256",
          "name": "",
          "type": "uint256"
        }
      ],
      "stateMutability": "view",
      "type": "function"
    },
    {
      "inputs": [
        {
          "internalType": "address",
          "name": "owner",
          "type": "address"
        },
        {
          "internalType": "uint256",
          "name": "index",
          "type": "uint256"
        }
      ],
      "name": "tokenOfOwnerByIndex",
      "outputs": [
        {
          "internalType": "uint256",
          "name": "",
          "type": "uint256"
        }
      ],
      "stateMutability": "view",
      "type": "function"
    },
    {
      "inputs": [
        {
          "internalType": "uint256",
          "name": "tokenId",
          "type": "uint256"
        }
      ],
      "name": "tokenURI",
      "outputs": [
        {
          "internalType": "string",
          "name": "",
          "type": "string"
        }
      ],
      "stateMutability": "view",
      "type": "function"
    },
    {
      "inputs": [
        {
          "internalType": "address",
          "name": "owner",
          "type": "address"
        }
      ],
      "name": "tokensOfOwner",
      "outputs": [
        {
          "internalType": "uint256[]",
          "name": "",
          "type": "uint256[]"
        }
      ],
      "stateMutability": "view",
      "type": "function"
    },
    {
      "inputs": [],
      "name": "totalSupply",
      "outputs": [
        {
          "internalType": "uint256",
          "name": "",
          "type": "uint256"
        }
      ],
      "stateMutability": "view",
      "type": "function"
    },
    {
      "inputs": [
        {
          "internalType": "address",
          "name": "from",
          "type": "address"
        },
        {
          "internalType": "address",
          "name": "to",
          "type": "address"
        },
        {
          "internalType": "uint256",
          "name": "tokenId",
          "type": "uint256"
        }
      ],
      "name": "transferFrom",
      "outputs": [],
      "stateMutability": "nonpayable",
      "type": "function"
    },
    {
      "inputs": [
        {
          "internalType": "address",
          "name": "newOwner",
          "type": "address"
        }
      ],
      "name": "transferOwnership",
      "outputs": [],
      "stateMutability": "nonpayable",
      "type": "function"
    }
  ],
  "bytecode": "0x60806040526001600b553480156200001657600080fd5b50336040518060400160405280601181526020017f42657466696e436f6c6c65637469626c650000000000000000000000000000008152506040518060400160405280600681526020017f4245544e46540000000000000000000000000000000000000000000000000000815250816000908162000095919062000477565b508060019081620000a7919062000477565b505050600073ffffffffffffffffffffffffffffffffffffffff168173ffffffffffffffffffffffffffffffffffffffff16036200011f5760006040517f1e4fbdf7000000000000000000000000000000000000000000000000000000008152600401620001169190620005a3565b60405180910390fd5b62000130816200013760201b60201c565b50620005c0565b6000600a60009054906101000a900473ffffffffffffffffffffffffffffffffffffffff16905081600a60006101000a81548173ffffffffffffffffffffffffffffffffffffffff021916908373ffffffffffffffffffffffffffffffffffffffff1602179055508173ffffffffffffffffffffffffffffffffffffffff168173ffffffffffffffffffffffffffffffffffffffff167f8be0079c531659141344cd1fd0a4f28419497f9722a3daafe3b4186f6b6457e060405160405180910390a35050565b600081519050919050565b7f4e487b7100000000000000000000000000000000000000000000000000000000600052604160045260246000fd5b7f4e487b7100000000000000000000000000000000000000000000000000000000600052602260045260246000fd5b600060028204905060018216806200027f57607f821691505b60208210810362000295576200029462000237565b5b50919050565b60008190508160005260206000209050919050565b60006020601f8301049050919050565b600082821b905092915050565b600060088302620002ff7fffffffffffffffffffffffffffffffffffffffffffffffffffffffffffffffff82620002c0565b6200030b8683620002c0565b95508019841693508086168417925050509392505050565b6000819050919050565b6000819050919050565b600062000358620003526200034c8462000323565b6200032d565b62000323565b9050919050565b6000819050919050565b620003748362000337565b6200038c62000383826200035f565b848454620002cd565b825550505050565b600090565b620003a362000394565b620003b081848462000369565b505050565b5b81811015620003d857620003cc60008262000399565b600181019050620003b6565b5050565b601f8211156200042757620003f1816200029b565b620003fc84620002b0565b810160208510156200040c578190505b620004246200041b85620002b0565b830182620003b5565b50505b505050565b600082821c905092915050565b60006200044c600019846008026200042c565b1980831691505092915050565b600062000467838362000439565b9150826002028217905092915050565b6200048282620001fd565b67ffffffffffffffff8111156200049e576200049d62000208565b5b620004aa825462000266565b620004b7828285620003dc565b600060209050601f831160018114620004ef5760008415620004da578287015190505b620004e6858262000459565b86555062000556565b601f198416620004ff866200029b565b60005b82811015620005295784890151825560018201915060208501945060208101905062000502565b8683101562000549578489015162000545601f89168262000439565b8355505b6001600288020188555050505b505050505050565b600073ffffffffffffffffffffffffffffffffffffffff82169050919050565b60006200058b826200055e565b9050919050565b6200059d816200057e565b82525050565b6000602082019050620005ba600083018462000592565b92915050565b61372480620005d06000396000f3fe608060405234801561001057600080fd5b506004361061014d5760003560e01c806370a08231116100c3578063a22cb4651161007c578063a22cb465146103b2578063a574cea4146103ce578063b88d4fde146103fe578063c87b56dd1461041a578063e985e9c51461044a578063f2fde38b1461047a5761014d565b806370a08231146102ee578063715018a61461031e57806375794a3c146103285780638462151c146103465780638da5cb5b1461037657806395d89b41146103945761014d565b80631e32c691116101155780631e32c6911461020a57806323b872dd146102265780632f745c591461024257806342842e0e146102725780634f6ccce71461028e5780636352211e146102be5761014d565b806301ffc9a71461015257806306fdde0314610182578063081812fc146101a0578063095ea7b3146101d057806318160ddd146101ec575b600080fd5b61016c600480360381019061016791906125fa565b610496565b6040516101799190612642565b60405180910390f35b61018a610510565b60405161019791906126ed565b60405180910390f35b6101ba60048036038101906101b59190612745565b6105a2565b6040516101c791906127b3565b60405180910390f35b6101ea60048036038101906101e591906127fa565b6105be565b005b6101f46105d4565b6040516102019190612849565b60405180910390f35b610224600480360381019061021f9190612902565b6105e1565b005b610240600480360381019061023b91906129cb565b610868565b005b61025c600480360381019061025791906127fa565b61096a565b6040516102699190612849565b60405180910390f35b61028c600480360381019061028791906129cb565b610a13565b005b6102a860048036038101906102a39190612745565b610a33565b6040516102b59190612849565b60405180910390f35b6102d860048036038101906102d39190612745565b610aa9565b6040516102e591906127b3565b60405180910390f35b61030860048036038101906103039190612a1e565b610abb565b6040516103159190612849565b60405180910390f35b610326610b75565b005b610330610b89565b60405161033d9190612849565b60405180910390f35b610360600480360381019061035b9190612a1e565b610b8f565b60405161036d9190612b09565b60405180910390f35b61037e610c3d565b60405161038b91906127b3565b60405180910390f35b61039c610c67565b6040516103a991906126ed565b60405180910390f35b6103cc60048036038101906103c79190612b57565b610cf9565b005b6103e860048036038101906103e39190612745565b610d0f565b6040516103f59190612c61565b60405180910390f35b61041860048036038101906104139190612db3565b610f86565b005b610434600480360381019061042f9190612745565b610fab565b60405161044191906126ed565b60405180910390f35b610464600480360381019061045f9190612e36565b611107565b6040516104719190612642565b60405180910390f35b610494600480360381019061048f9190612a1e565b61119b565b005b60007f780e9d63000000000000000000000000000000000000000000000000000000007bffffffffffffffffffffffffffffffffffffffffffffffffffffffff1916827bffffffffffffffffffffffffffffffffffffffffffffffffffffffff19161480610509575061050882611221565b5b9050919050565b60606000805461051f90612ea5565b80601f016020809104026020016040519081016040528092919081815260200182805461054b90612ea5565b80156105985780601f1061056d57610100808354040283529160200191610598565b820191906000526020600020905b81548152906001019060200180831161057b57829003601f168201915b5050505050905090565b60006105ad82611303565b506105b78261138b565b9050919050565b6105d082826105cb6113c8565b6113d0565b5050565b6000600880549050905090565b60008787905011610627576040517f08c379a000000000000000000000000000000000000000000000000000000000815260040161061e90612f22565b60405180910390fd5b60008360ff1611801561063e575060648360ff1611155b61067d576040517f08c379a000000000000000000000000000000000000000000000000000000000815260040161067490612f8e565b60405180910390fd5b6000600b600081548092919061069290612fdd565b9190505590506106a233826113e2565b604051806080016040528089898080601f016020809104026020016040519081016040528093929190818152602001838380828437600081840152601f19601f82011690508083019250505050505050815260200187878080601f016020809104026020016040519081016040528093929190818152602001838380828437600081840152601f19601f8201169050808301925050505050505081526020018560ff16815260200184848080601f016020809104026020016040519081016040528093929190818152602001838380828437600081840152601f19601f82011690508083019250505050505050815250600c600083815260200190815260200160002060008201518160000190816107ba91906131d1565b5060208201518160010190816107d091906131d1565b5060408201518160020160006101000a81548160ff021916908360ff160217905550606082015181600301908161080791906131d1565b50905050803373ffffffffffffffffffffffffffffffffffffffff167fbab280e150acfcbe7f3b59ce2144615a5238ad7ed9b19cdb3f756598f5d96e9b8a8a88604051610856939291906132df565b60405180910390a35050505050505050565b600073ffffffffffffffffffffffffffffffffffffffff168273ffffffffffffffffffffffffffffffffffffffff16036108da5760006040517f64a0ae920000000000000000000000000000000000000000000000000000000081526004016108d191906127b3565b60405180910390fd5b60006108ee83836108e96113c8565b611400565b90508373ffffffffffffffffffffffffffffffffffffffff168173ffffffffffffffffffffffffffffffffffffffff1614610964578382826040517f64283d7b00000000000000000000000000000000000000000000000000000000815260040161095b93929190613311565b60405180910390fd5b50505050565b600061097583610abb565b82106109ba5782826040517fa57d13dc0000000000000000000000000000000000000000000000000000000081526004016109b1929190613348565b60405180910390fd5b600660008473ffffffffffffffffffffffffffffffffffffffff1673ffffffffffffffffffffffffffffffffffffffff168152602001908152602001600020600083815260200190815260200160002054905092915050565b610a2e83838360405180602001604052806000815250610f86565b505050565b6000610a3d6105d4565b8210610a83576000826040517fa57d13dc000000000000000000000000000000000000000000000000000000008152600401610a7a929190613348565b60405180910390fd5b60088281548110610a9757610a96613371565b5b90600052602060002001549050919050565b6000610ab482611303565b9050919050565b60008073ffffffffffffffffffffffffffffffffffffffff168273ffffffffffffffffffffffffffffffffffffffff1603610b2e5760006040517f89c62b64000000000000000000000000000000000000000000000000000000008152600401610b2591906127b3565b60405180910390fd5b600360008373ffffffffffffffffffffffffffffffffffffffff1673ffffffffffffffffffffffffffffffffffffffff168152602001908152602001600020549050919050565b610b7d61151d565b610b8760006115a4565b565b600b5481565b60606000610b9c83610abb565b905060008167ffffffffffffffff811115610bba57610bb9612c88565b5b604051908082528060200260200182016040528015610be85781602001602082028036833780820191505090505b50905060005b82811015610c3257610c00858261096a565b828281518110610c1357610c12613371565b5b6020026020010181815250508080610c2a90612fdd565b915050610bee565b508092505050919050565b6000600a60009054906101000a900473ffffffffffffffffffffffffffffffffffffffff16905090565b606060018054610c7690612ea5565b80601f0160208091040260200160405190810160405280929190818152602001828054610ca290612ea5565b8015610cef5780601f10610cc457610100808354040283529160200191610cef565b820191906000526020600020905b815481529060010190602001808311610cd257829003601f168201915b5050505050905090565b610d0b610d046113c8565b838361166a565b5050565b610d17612563565b600073ffffffffffffffffffffffffffffffffffffffff16610d38836117d9565b73ffffffffffffffffffffffffffffffffffffffff1603610d8e576040517f08c379a0000000000000000000000000000000000000000000000000000000008152600401610d85906133ec565b60405180910390fd5b600c6000838152602001908152602001600020604051806080016040529081600082018054610dbc90612ea5565b80601f0160208091040260200160405190810160405280929190818152602001828054610de890612ea5565b8015610e355780601f10610e0a57610100808354040283529160200191610e35565b820191906000526020600020905b815481529060010190602001808311610e1857829003601f168201915b50505050508152602001600182018054610e4e90612ea5565b80601f0160208091040260200160405190810160405280929190818152602001828054610e7a90612ea5565b8015610ec75780601f10610e9c57610100808354040283529160200191610ec7565b820191906000526020600020905b815481529060010190602001808311610eaa57829003601f168201915b505050505081526020016002820160009054906101000a900460ff1660ff1660ff168152602001600382018054610efd90612ea5565b80601f0160208091040260200160405190810160405280929190818152602001828054610f2990612ea5565b8015610f765780601f10610f4b57610100808354040283529160200191610f76565b820191906000526020600020905b815481529060010190602001808311610f5957829003601f168201915b5050505050815250509050919050565b610f91848484610868565b610fa5610f9c6113c8565b85858585611816565b50505050565b6060600073ffffffffffffffffffffffffffffffffffffffff16610fce836117d9565b73ffffffffffffffffffffffffffffffffffffffff1603611024576040517f08c379a000000000000000000000000000000000000000000000000000000000815260040161101b90613458565b60405180910390fd5b6000600c6000848152602001908152602001600020600301805461104790612ea5565b80601f016020809104026020016040519081016040528092919081815260200182805461107390612ea5565b80156110c05780601f10611095576101008083540402835291602001916110c0565b820191906000526020600020905b8154815290600101906020018083116110a357829003601f168201915b5050505050905060008151116110fd576110d9836119c7565b6040516020016110e9919061354c565b6040516020818303038152906040526110ff565b805b915050919050565b6000600560008473ffffffffffffffffffffffffffffffffffffffff1673ffffffffffffffffffffffffffffffffffffffff16815260200190815260200160002060008373ffffffffffffffffffffffffffffffffffffffff1673ffffffffffffffffffffffffffffffffffffffff16815260200190815260200160002060009054906101000a900460ff16905092915050565b6111a361151d565b600073ffffffffffffffffffffffffffffffffffffffff168173ffffffffffffffffffffffffffffffffffffffff16036112155760006040517f1e4fbdf700000000000000000000000000000000000000000000000000000000815260040161120c91906127b3565b60405180910390fd5b61121e816115a4565b50565b60007f80ac58cd000000000000000000000000000000000000000000000000000000007bffffffffffffffffffffffffffffffffffffffffffffffffffffffff1916827bffffffffffffffffffffffffffffffffffffffffffffffffffffffff191614806112ec57507f5b5e139f000000000000000000000000000000000000000000000000000000007bffffffffffffffffffffffffffffffffffffffffffffffffffffffff1916827bffffffffffffffffffffffffffffffffffffffffffffffffffffffff1916145b806112fc57506112fb82611a95565b5b9050919050565b60008061130f836117d9565b9050600073ffffffffffffffffffffffffffffffffffffffff168173ffffffffffffffffffffffffffffffffffffffff160361138257826040517f7e2732890000000000000000000000000000000000000000000000000000000081526004016113799190612849565b60405180910390fd5b80915050919050565b60006004600083815260200190815260200160002060009054906101000a900473ffffffffffffffffffffffffffffffffffffffff169050919050565b600033905090565b6113dd8383836001611aff565b505050565b6113fc828260405180602001604052806000815250611cc4565b5050565b60008061140e858585611ce8565b9050600073ffffffffffffffffffffffffffffffffffffffff168173ffffffffffffffffffffffffffffffffffffffff16036114525761144d84611f02565b611491565b8473ffffffffffffffffffffffffffffffffffffffff168173ffffffffffffffffffffffffffffffffffffffff16146114905761148f8185611f4b565b5b5b600073ffffffffffffffffffffffffffffffffffffffff168573ffffffffffffffffffffffffffffffffffffffff16036114d3576114ce84612036565b611512565b8473ffffffffffffffffffffffffffffffffffffffff168173ffffffffffffffffffffffffffffffffffffffff1614611511576115108585612107565b5b5b809150509392505050565b6115256113c8565b73ffffffffffffffffffffffffffffffffffffffff16611543610c3d565b73ffffffffffffffffffffffffffffffffffffffff16146115a2576115666113c8565b6040517f118cdaa700000000000000000000000000000000000000000000000000000000815260040161159991906127b3565b60405180910390fd5b565b6000600a60009054906101000a900473ffffffffffffffffffffffffffffffffffffffff16905081600a60006101000a81548173ffffffffffffffffffffffffffffffffffffffff021916908373ffffffffffffffffffffffffffffffffffffffff1602179055508173ffffffffffffffffffffffffffffffffffffffff168173ffffffffffffffffffffffffffffffffffffffff167f8be0079c531659141344cd1fd0a4f28419497f9722a3daafe3b4186f6b6457e060405160405180910390a35050565b600073ffffffffffffffffffffffffffffffffffffffff168273ffffffffffffffffffffffffffffffffffffffff16036116db57816040517f5b08ba180000000000000000000000000000000000000000000000000000000081526004016116d291906127b3565b60405180910390fd5b80600560008573ffffffffffffffffffffffffffffffffffffffff1673ffffffffffffffffffffffffffffffffffffffff16815260200190815260200160002060008473ffffffffffffffffffffffffffffffffffffffff1673ffffffffffffffffffffffffffffffffffffffff16815260200190815260200160002060006101000a81548160ff0219169083151502179055508173ffffffffffffffffffffffffffffffffffffffff168373ffffffffffffffffffffffffffffffffffffffff167f17307eab39ab6107e8899845ad3d59bd9653f200f220920489ca2b5937696c31836040516117cc9190612642565b60405180910390a3505050565b60006002600083815260200190815260200160002060009054906101000a900473ffffffffffffffffffffffffffffffffffffffff169050919050565b60008373ffffffffffffffffffffffffffffffffffffffff163b11156119c0578273ffffffffffffffffffffffffffffffffffffffff1663150b7a02868685856040518563ffffffff1660e01b815260040161187594939291906135ce565b6020604051808303816000875af19250505080156118b157506040513d601f19601f820116820180604052508101906118ae919061362f565b60015b611935573d80600081146118e1576040519150601f19603f3d011682016040523d82523d6000602084013e6118e6565b606091505b50600081510361192d57836040517f64a0ae9200000000000000000000000000000000000000000000000000000000815260040161192491906127b3565b60405180910390fd5b805160208201fd5b63150b7a0260e01b7bffffffffffffffffffffffffffffffffffffffffffffffffffffffff1916817bffffffffffffffffffffffffffffffffffffffffffffffffffffffff1916146119be57836040517f64a0ae920000000000000000000000000000000000000000000000000000000081526004016119b591906127b3565b60405180910390fd5b505b5050505050565b6060600060016119d684612192565b01905060008167ffffffffffffffff8111156119f5576119f4612c88565b5b6040519080825280601f01601f191660200182016040528015611a275781602001600182028036833780820191505090505b509050600082602083010190505b600115611a8a578080600190039150507f3031323334353637383961626364656600000000000000000000000000000000600a86061a8153600a8581611a7e57611a7d61365c565b5b04945060008503611a35575b819350505050919050565b60007f01ffc9a7000000000000000000000000000000000000000000000000000000007bffffffffffffffffffffffffffffffffffffffffffffffffffffffff1916827bffffffffffffffffffffffffffffffffffffffffffffffffffffffff1916149050919050565b8080611b385750600073ffffffffffffffffffffffffffffffffffffffff168273ffffffffffffffffffffffffffffffffffffffff1614155b15611c6c576000611b4884611303565b9050600073ffffffffffffffffffffffffffffffffffffffff168373ffffffffffffffffffffffffffffffffffffffff1614158015611bb357508273ffffffffffffffffffffffffffffffffffffffff168173ffffffffffffffffffffffffffffffffffffffff1614155b8015611bc65750611bc48184611107565b155b15611c0857826040517fa9fbf51f000000000000000000000000000000000000000000000000000000008152600401611bff91906127b3565b60405180910390fd5b8115611c6a57838573ffffffffffffffffffffffffffffffffffffffff168273ffffffffffffffffffffffffffffffffffffffff167f8c5be1e5ebec7d5bd14f71427d1e84f3dd0314c0f7b2291e5b200ac8c7c3b92560405160405180910390a45b505b836004600085815260200190815260200160002060006101000a81548173ffffffffffffffffffffffffffffffffffffffff021916908373ffffffffffffffffffffffffffffffffffffffff16021790555050505050565b611cce83836122e5565b611ce3611cd96113c8565b6000858585611816565b505050565b600080611cf4846117d9565b9050600073ffffffffffffffffffffffffffffffffffffffff168373ffffffffffffffffffffffffffffffffffffffff1614611d3657611d358184866123de565b5b600073ffffffffffffffffffffffffffffffffffffffff168173ffffffffffffffffffffffffffffffffffffffff1614611dc757611d78600085600080611aff565b6001600360008373ffffffffffffffffffffffffffffffffffffffff1673ffffffffffffffffffffffffffffffffffffffff168152602001908152602001600020600082825403925050819055505b600073ffffffffffffffffffffffffffffffffffffffff168573ffffffffffffffffffffffffffffffffffffffff1614611e4a576001600360008773ffffffffffffffffffffffffffffffffffffffff1673ffffffffffffffffffffffffffffffffffffffff168152602001908152602001600020600082825401925050819055505b846002600086815260200190815260200160002060006101000a81548173ffffffffffffffffffffffffffffffffffffffff021916908373ffffffffffffffffffffffffffffffffffffffff160217905550838573ffffffffffffffffffffffffffffffffffffffff168273ffffffffffffffffffffffffffffffffffffffff167fddf252ad1be2c89b69c2b068fc378daa952ba7f163c4a11628f55a4df523b3ef60405160405180910390a4809150509392505050565b6008805490506009600083815260200190815260200160002081905550600881908060018154018082558091505060019003906000526020600020016000909190919091505550565b6000611f5683610abb565b90506000600760008481526020019081526020016000205490506000600660008673ffffffffffffffffffffffffffffffffffffffff1673ffffffffffffffffffffffffffffffffffffffff16815260200190815260200160002090508282146120025760008160008581526020019081526020016000205490508082600085815260200190815260200160002081905550826007600083815260200190815260200160002081905550505b6007600085815260200190815260200160002060009055806000848152602001908152602001600020600090555050505050565b6000600160088054905061204a919061368b565b905060006009600084815260200190815260200160002054905060006008838154811061207a57612079613371565b5b90600052602060002001549050806008838154811061209c5761209b613371565b5b9060005260206000200181905550816009600083815260200190815260200160002081905550600960008581526020019081526020016000206000905560088054806120eb576120ea6136bf565b5b6001900381819060005260206000200160009055905550505050565b6000600161211484610abb565b61211e919061368b565b905081600660008573ffffffffffffffffffffffffffffffffffffffff1673ffffffffffffffffffffffffffffffffffffffff168152602001908152602001600020600083815260200190815260200160002081905550806007600084815260200190815260200160002081905550505050565b600080600090507a184f03e93ff9f4daa797ed6e38ed64bf6a1f01000000000000000083106121f0577a184f03e93ff9f4daa797ed6e38ed64bf6a1f01000000000000000083816121e6576121e561365c565b5b0492506040810190505b6d04ee2d6d415b85acef8100000000831061222d576d04ee2d6d415b85acef810000000083816122235761222261365c565b5b0492506020810190505b662386f26fc10000831061225c57662386f26fc1000083816122525761225161365c565b5b0492506010810190505b6305f5e1008310612285576305f5e100838161227b5761227a61365c565b5b0492506008810190505b61271083106122aa5761271083816122a05761229f61365c565b5b0492506004810190505b606483106122cd57606483816122c3576122c261365c565b5b0492506002810190505b600a83106122dc576001810190505b80915050919050565b600073ffffffffffffffffffffffffffffffffffffffff168273ffffffffffffffffffffffffffffffffffffffff16036123575760006040517f64a0ae9200000000000000000000000000000000000000000000000000000000815260040161234e91906127b3565b60405180910390fd5b600061236583836000611400565b9050600073ffffffffffffffffffffffffffffffffffffffff168173ffffffffffffffffffffffffffffffffffffffff16146123d95760006040517f73c6ac6e0000000000000000000000000000000000000000000000000000000081526004016123d091906127b3565b60405180910390fd5b505050565b6123e98383836124a2565b61249d57600073ffffffffffffffffffffffffffffffffffffffff168373ffffffffffffffffffffffffffffffffffffffff160361245e57806040517f7e2732890000000000000000000000000000000000000000000000000000000081526004016124559190612849565b60405180910390fd5b81816040517f177e802f000000000000000000000000000000000000000000000000000000008152600401612494929190613348565b60405180910390fd5b505050565b60008073ffffffffffffffffffffffffffffffffffffffff168373ffffffffffffffffffffffffffffffffffffffff161415801561255a57508273ffffffffffffffffffffffffffffffffffffffff168473ffffffffffffffffffffffffffffffffffffffff16148061251b575061251a8484611107565b5b8061255957508273ffffffffffffffffffffffffffffffffffffffff166125418361138b565b73ffffffffffffffffffffffffffffffffffffffff16145b5b90509392505050565b60405180608001604052806060815260200160608152602001600060ff168152602001606081525090565b6000604051905090565b600080fd5b600080fd5b60007fffffffff0000000000000000000000000000000000000000000000000000000082169050919050565b6125d7816125a2565b81146125e257600080fd5b50565b6000813590506125f4816125ce565b92915050565b6000602082840312156126105761260f612598565b5b600061261e848285016125e5565b91505092915050565b60008115159050919050565b61263c81612627565b82525050565b60006020820190506126576000830184612633565b92915050565b600081519050919050565b600082825260208201905092915050565b60005b8381101561269757808201518184015260208101905061267c565b60008484015250505050565b6000601f19601f8301169050919050565b60006126bf8261265d565b6126c98185612668565b93506126d9818560208601612679565b6126e2816126a3565b840191505092915050565b6000602082019050818103600083015261270781846126b4565b905092915050565b6000819050919050565b6127228161270f565b811461272d57600080fd5b50565b60008135905061273f81612719565b92915050565b60006020828403121561275b5761275a612598565b5b600061276984828501612730565b91505092915050565b600073ffffffffffffffffffffffffffffffffffffffff82169050919050565b600061279d82612772565b9050919050565b6127ad81612792565b82525050565b60006020820190506127c860008301846127a4565b92915050565b6127d781612792565b81146127e257600080fd5b50565b6000813590506127f4816127ce565b92915050565b6000806040838503121561281157612810612598565b5b600061281f858286016127e5565b925050602061283085828601612730565b9150509250929050565b6128438161270f565b82525050565b600060208201905061285e600083018461283a565b92915050565b600080fd5b600080fd5b600080fd5b60008083601f84011261288957612888612864565b5b8235905067ffffffffffffffff8111156128a6576128a5612869565b5b6020830191508360018202830111156128c2576128c161286e565b5b9250929050565b600060ff82169050919050565b6128df816128c9565b81146128ea57600080fd5b50565b6000813590506128fc816128d6565b92915050565b60008060008060008060006080888a03121561292157612920612598565b5b600088013567ffffffffffffffff81111561293f5761293e61259d565b5b61294b8a828b01612873565b9750975050602088013567ffffffffffffffff81111561296e5761296d61259d565b5b61297a8a828b01612873565b9550955050604061298d8a828b016128ed565b935050606088013567ffffffffffffffff8111156129ae576129ad61259d565b5b6129ba8a828b01612873565b925092505092959891949750929550565b6000806000606084860312156129e4576129e3612598565b5b60006129f2868287016127e5565b9350506020612a03868287016127e5565b9250506040612a1486828701612730565b9150509250925092565b600060208284031215612a3457612a33612598565b5b6000612a42848285016127e5565b91505092915050565b600081519050919050565b600082825260208201905092915050565b6000819050602082019050919050565b612a808161270f565b82525050565b6000612a928383612a77565b60208301905092915050565b6000602082019050919050565b6000612ab682612a4b565b612ac08185612a56565b9350612acb83612a67565b8060005b83811015612afc578151612ae38882612a86565b9750612aee83612a9e565b925050600181019050612acf565b5085935050505092915050565b60006020820190508181036000830152612b238184612aab565b905092915050565b612b3481612627565b8114612b3f57600080fd5b50565b600081359050612b5181612b2b565b92915050565b60008060408385031215612b6e57612b6d612598565b5b6000612b7c858286016127e5565b9250506020612b8d85828601612b42565b9150509250929050565b600082825260208201905092915050565b6000612bb38261265d565b612bbd8185612b97565b9350612bcd818560208601612679565b612bd6816126a3565b840191505092915050565b612bea816128c9565b82525050565b60006080830160008301518482036000860152612c0d8282612ba8565b91505060208301518482036020860152612c278282612ba8565b9150506040830151612c3c6040860182612be1565b5060608301518482036060860152612c548282612ba8565b9150508091505092915050565b60006020820190508181036000830152612c7b8184612bf0565b905092915050565b600080fd5b7f4e487b7100000000000000000000000000000000000000000000000000000000600052604160045260246000fd5b612cc0826126a3565b810181811067ffffffffffffffff82111715612cdf57612cde612c88565b5b80604052505050565b6000612cf261258e565b9050612cfe8282612cb7565b919050565b600067ffffffffffffffff821115612d1e57612d1d612c88565b5b612d27826126a3565b9050602081019050919050565b82818337600083830152505050565b6000612d56612d5184612d03565b612ce8565b905082815260208101848484011115612d7257612d71612c83565b5b612d7d848285612d34565b509392505050565b600082601f830112612d9a57612d99612864565b5b8135612daa848260208601612d43565b91505092915050565b60008060008060808587031215612dcd57612dcc612598565b5b6000612ddb878288016127e5565b9450506020612dec878288016127e5565b9350506040612dfd87828801612730565b925050606085013567ffffffffffffffff811115612e1e57612e1d61259d565b5b612e2a87828801612d85565b91505092959194509250565b60008060408385031215612e4d57612e4c612598565b5b6000612e5b858286016127e5565b9250506020612e6c858286016127e5565b9150509250929050565b7f4e487b7100000000000000000000000000000000000000000000000000000000600052602260045260246000fd5b60006002820490506001821680612ebd57607f821691505b602082108103612ed057612ecf612e76565b5b50919050565b7f4e616d6520726571756972656421212100000000000000000000000000000000600082015250565b6000612f0c601083612668565b9150612f1782612ed6565b602082019050919050565b60006020820190508181036000830152612f3b81612eff565b9050919050565b7f496e76616c696420726172697479212121000000000000000000000000000000600082015250565b6000612f78601183612668565b9150612f8382612f42565b602082019050919050565b60006020820190508181036000830152612fa781612f6b565b9050919050565b7f4e487b7100000000000000000000000000000000000000000000000000000000600052601160045260246000fd5b6000612fe88261270f565b91507fffffffffffffffffffffffffffffffffffffffffffffffffffffffffffffffff820361301a57613019612fae565b5b600182019050919050565b60008190508160005260206000209050919050565b60006020601f8301049050919050565b600082821b905092915050565b6000600883026130877fffffffffffffffffffffffffffffffffffffffffffffffffffffffffffffffff8261304a565b613091868361304a565b95508019841693508086168417925050509392505050565b6000819050919050565b60006130ce6130c96130c48461270f565b6130a9565b61270f565b9050919050565b6000819050919050565b6130e8836130b3565b6130fc6130f4826130d5565b848454613057565b825550505050565b600090565b613111613104565b61311c8184846130df565b505050565b5b8181101561314057613135600082613109565b600181019050613122565b5050565b601f8211156131855761315681613025565b61315f8461303a565b8101602085101561316e578190505b61318261317a8561303a565b830182613121565b50505b505050565b600082821c905092915050565b60006131a86000198460080261318a565b1980831691505092915050565b60006131c18383613197565b9150826002028217905092915050565b6131da8261265d565b67ffffffffffffffff8111156131f3576131f2612c88565b5b6131fd8254612ea5565b613208828285613144565b600060209050601f83116001811461323b5760008415613229578287015190505b61323385826131b5565b86555061329b565b601f19841661324986613025565b60005b828110156132715784890151825560018201915060208501945060208101905061324c565b8683101561328e578489015161328a601f891682613197565b8355505b6001600288020188555050505b505050505050565b60006132af8385612668565b93506132bc838584612d34565b6132c5836126a3565b840190509392505050565b6132d9816128c9565b82525050565b600060408201905081810360008301526132fa8185876132a3565b905061330960208301846132d0565b949350505050565b600060608201905061332660008301866127a4565b613333602083018561283a565b61334060408301846127a4565b949350505050565b600060408201905061335d60008301856127a4565b61336a602083018461283a565b9392505050565b7f4e487b7100000000000000000000000000000000000000000000000000000000600052603260045260246000fd5b7f4e6f6e6578697374656e7420746f6b656e212121000000000000000000000000600082015250565b60006133d6601483612668565b91506133e1826133a0565b602082019050919050565b60006020820190508181036000830152613405816133c9565b9050919050565b7f4e6f6e6578697374656e7420746f6b656e000000000000000000000000000000600082015250565b6000613442601183612668565b915061344d8261340c565b602082019050919050565b6000602082019050818103600083015261347181613435565b9050919050565b600081905092915050565b7f68747470733a2f2f6e66742e62657466696e2e696f2f00000000000000000000600082015250565b60006134b9601683613478565b91506134c482613483565b601682019050919050565b60006134da8261265d565b6134e48185613478565b93506134f4818560208601612679565b80840191505092915050565b7f2e6a736f6e000000000000000000000000000000000000000000000000000000600082015250565b6000613536600583613478565b915061354182613500565b600582019050919050565b6000613557826134ac565b915061356382846134cf565b915061356e82613529565b915081905092915050565b600081519050919050565b600082825260208201905092915050565b60006135a082613579565b6135aa8185613584565b93506135ba818560208601612679565b6135c3816126a3565b840191505092915050565b60006080820190506135e360008301876127a4565b6135f060208301866127a4565b6135fd604083018561283a565b818103606083015261360f8184613595565b905095945050505050565b600081519050613629816125ce565b92915050565b60006020828403121561364557613644612598565b5b60006136538482850161361a565b91505092915050565b7f4e487b7100000000000000000000000000000000000000000000000000000000600052601260045260246000fd5b60006136968261270f565b91506136a18361270f565b92508282039050818111156136b9576136b8612fae565b5b92915050565b7f4e487b7100000000000000000000000000000000000000000000000000000000600052603160045260246000fdfea2646970667358221220dff505ec39b99f36c1c1d57332a2252dfa403326e5e3641164670060a31c24f964736f6c63430008140033",
  "linkReferences": {},
  "deployedLinkReferences": {}
}